{"abi":[{"type":"constructor","inputs":[{"name":"_bankCapUSD","type":"uint256","internalType":"uint256"},{"name":"_umbralRetiroUSD","type":"uint256","internalType":"uint256"},{"name":"_usdc","type":"address","internalType":"address"},{"name":"_weth","type":"address","internalType":"address"},{"name":"_owner","type":"address","internalType":"address"},{"name":"_router","type":"address","internalType":"address"}],"stateMutability":"nonpayable"},{"type":"function","name":"NATIVE_TOKEN","inputs":[],"outputs":[{"name":"","type":"address","internalType":"address"}],"stateMutability":"view"},{"type":"function","name":"ROUTER","inputs":[],"outputs":[{"name":"","type":"address","internalType":"contract IUniswapV2Router02"}],"stateMutability":"view"},{"type":"function","name":"consultarBalanceTotalUSD","inputs":[{"name":"_usuario","type":"address","internalType":"address"}],"outputs":[{"name":"balanceTotalUSD_","type":"uint256","internalType":"uint256"}],"stateMutability":"view"},{"type":"function","name":"depositarETH","inputs":[],"outputs":[],"stateMutability":"payable"},{"type":"function","name":"depositarToken","inputs":[{"name":"_token","type":"address","internalType":"address"},{"name":"_amount","type":"uint256","internalType":"uint256"}],"outputs":[],"stateMutability":"nonpayable"},{"type":"function","name":"depositarUSDC","inputs":[{"name":"_amount","type":"uint256","internalType":"uint256"}],"outputs":[],"stateMutability":"nonpayable"},{"type":"function","name":"getCotizacionTokenAUsdc","inputs":[{"name":"token","type":"address","internalType":"address"},{"name":"amount","type":"uint256","internalType":"uint256"}],"outputs":[{"name":"usdcAmount","type":"uint256","internalType":"uint256"}],"stateMutability":"view"},{"type":"function","name":"getUmbralRetiro","inputs":[],"outputs":[{"name":"","type":"uint256","internalType":"uint256"}],"stateMutability":"view"},{"type":"function","name":"i_bankCapUSD","inputs":[],"outputs":[{"name":"","type":"uint256","internalType":"uint256"}],"stateMutability":"view"},{"type":"function","name":"i_umbralRetiroUSD","inputs":[],"outputs":[{"name":"","type":"uint256","internalType":"uint256"}],"stateMutability":"view"},{"type":"function","name":"i_usdc","inputs":[],"outputs":[{"name":"","type":"address","internalType":"contract IERC20"}],"stateMutability":"view"},{"type":"function","name":"i_weth","inputs":[],"outputs":[{"name":"","type":"address","internalType":"contract IERC20"}],"stateMutability":"view"},{"type":"function","name":"owner","inputs":[],"outputs":[{"name":"","type":"address","internalType":"address"}],"stateMutability":"view"},{"type":"function","name":"renounceOwnership","inputs":[],"outputs":[],"stateMutability":"nonpayable"},{"type":"function","name":"retirarETH","inputs":[{"name":"_amountETH","type":"uint256","internalType":"uint256"}],"outputs":[],"stateMutability":"nonpayable"},{"type":"function","name":"retirarUSDC","inputs":[{"name":"_amount","type":"uint256","internalType":"uint256"}],"outputs":[],"stateMutability":"nonpayable"},{"type":"function","name":"s_balances","inputs":[{"name":"user","type":"address","internalType":"address"},{"name":"token","type":"address","internalType":"address"}],"outputs":[{"name":"balanceUSD","type":"uint256","internalType":"uint256"}],"stateMutability":"view"},{"type":"function","name":"s_contadorDepositos","inputs":[],"outputs":[{"name":"","type":"uint256","internalType":"uint256"}],"stateMutability":"view"},{"type":"function","name":"s_contadorRetiros","inputs":[],"outputs":[{"name":"","type":"uint256","internalType":"uint256"}],"stateMutability":"view"},{"type":"function","name":"s_totalDepositadoUSD","inputs":[],"outputs":[{"name":"","type":"uint256","internalType":"uint256"}],"stateMutability":"view"},{"type":"function","name":"transferOwnership","inputs":[{"name":"newOwner","type":"address","internalType":"address"}],"outputs":[],"stateMutability":"nonpayable"},{"type":"event","name":"KipuBankV3_DepositoRealizado","inputs":[{"name":"usuario","type":"address","indexed":true,"internalType":"address"},{"name":"token","type":"address","indexed":true,"internalType":"address"},{"name":"amount","type":"uint256","indexed":false,"internalType":"uint256"},{"name":"amountUSD","type":"uint256","indexed":false,"internalType":"uint256"}],"anonymous":false},{"type":"event","name":"KipuBankV3_RetiroRealizado","inputs":[{"name":"usuario","type":"address","indexed":true,"internalType":"address"},{"name":"token","type":"address","indexed":true,"internalType":"address"},{"name":"amount","type":"uint256","indexed":false,"internalType":"uint256"},{"name":"amountUSD","type":"uint256","indexed":false,"internalType":"uint256"}],"anonymous":false},{"type":"event","name":"OwnershipTransferred","inputs":[{"name":"previousOwner","type":"address","indexed":true,"internalType":"address"},{"name":"newOwner","type":"address","indexed":true,"internalType":"address"}],"anonymous":false},{"type":"event","name":"SwapExecuted","inputs":[{"name":"user","type":"address","indexed":true,"internalType":"address"},{"name":"tokenIn","type":"address","indexed":false,"internalType":"address"},{"name":"tokenOut","type":"address","indexed":false,"internalType":"address"},{"name":"amountIn","type":"uint256","indexed":false,"internalType":"uint256"},{"name":"amountOut","type":"uint256","indexed":false,"internalType":"uint256"}],"anonymous":false},{"type":"error","name":"KipuBankV3_LimiteGlobalExcedidoUSD","inputs":[{"name":"totalActualUSD","type":"uint256","internalType":"uint256"},{"name":"intentoDepositoUSD","type":"uint256","internalType":"uint256"},{"name":"limiteUSD","type":"uint256","internalType":"uint256"}]},{"type":"error","name":"KipuBankV3_MontoDebeSerMayorACero","inputs":[]},{"type":"error","name":"KipuBankV3_RetiroExcedeUmbral","inputs":[{"name":"montoSolicitadoUSD","type":"uint256","internalType":"uint256"},{"name":"umbralMaximoUSD","type":"uint256","internalType":"uint256"}]},{"type":"error","name":"KipuBankV3_SaldoInsuficiente","inputs":[{"name":"balanceDisponible","type":"uint256","internalType":"uint256"},{"name":"montoSolicitado","type":"uint256","internalType":"uint256"}]},{"type":"error","name":"KipuBankV3_TransferenciaFallida","inputs":[{"name":"destinatario","type":"address","internalType":"address"}]},{"type":"error","name":"OwnableInvalidOwner","inputs":[{"name":"owner","type":"address","internalType":"address"}]},{"type":"error","name":"OwnableUnauthorizedAccount","inputs":[{"name":"account","type":"address","internalType":"address"}]},{"type":"error","name":"ReentrancyGuardReentrantCall","inputs":[]},{"type":"error","name":"SafeERC20FailedOperation","inputs":[{"name":"token","type":"address","internalType":"address"}]}],"bytecode":{"object":"0x610120604052348015610010575f80fd5b50604051612dc4380380612dc483398181016040528101906100329190610313565b815f73ffffffffffffffffffffffffffffffffffffffff168173ffffffffffffffffffffffffffffffffffffffff16036100a3575f6040517f1e4fbdf700000000000000000000000000000000000000000000000000000000815260040161009a91906103ab565b60405180910390fd5b6100b28161018f60201b60201c565b5060016100d16100c661025060201b60201c565b61027960201b60201c565b5f01819055508560a081815250508460c081815250508373ffffffffffffffffffffffffffffffffffffffff1660e08173ffffffffffffffffffffffffffffffffffffffff16815250508273ffffffffffffffffffffffffffffffffffffffff166101008173ffffffffffffffffffffffffffffffffffffffff16815250508073ffffffffffffffffffffffffffffffffffffffff1660808173ffffffffffffffffffffffffffffffffffffffff16815250505050505050506103c4565b5f805f9054906101000a900473ffffffffffffffffffffffffffffffffffffffff169050815f806101000a81548173ffffffffffffffffffffffffffffffffffffffff021916908373ffffffffffffffffffffffffffffffffffffffff1602179055508173ffffffffffffffffffffffffffffffffffffffff168173ffffffffffffffffffffffffffffffffffffffff167f8be0079c531659141344cd1fd0a4f28419497f9722a3daafe3b4186f6b6457e060405160405180910390a35050565b5f7f9b779b17422d0df92223018b32b4d1fa46e071723d6817e2486d003becc55f005f1b905090565b5f819050919050565b5f80fd5b5f819050919050565b61029881610286565b81146102a2575f80fd5b50565b5f815190506102b38161028f565b92915050565b5f73ffffffffffffffffffffffffffffffffffffffff82169050919050565b5f6102e2826102b9565b9050919050565b6102f2816102d8565b81146102fc575f80fd5b50565b5f8151905061030d816102e9565b92915050565b5f805f805f8060c0878903121561032d5761032c610282565b5b5f61033a89828a016102a5565b965050602061034b89828a016102a5565b955050604061035c89828a016102ff565b945050606061036d89828a016102ff565b935050608061037e89828a016102ff565b92505060a061038f89828a016102ff565b9150509295509295509295565b6103a5816102d8565b82525050565b5f6020820190506103be5f83018461039c565b92915050565b60805160a05160c05160e051610100516128f86104cc5f395f818161079201526109af01525f818161080101528181610aa401528181610ff4015281816110930152818161116b01528181611209015281816112950152818161132901528181611546015281816116e5015281816117bc0152818161192201528181611a5901528181611af70152611b8401525f818161093d0152818161098b01528181610d0301528181610d2c01528181610f2e0152610f5701525f81816104990152818161050b0152818161054401528181611397015281816113d00152818161198201526119bb01525f8181610871015281816109670152818161146301526115d401526128f85ff3fe608060405260043610610129575f3560e01c8063698b7241116100aa578063a86b0bf61161006e578063a86b0bf61461038d578063d4b0d3ce146103b5578063dccd58e3146103df578063e98c66011461041b578063f2fde38b14610445578063ff40e1d01461046d57610129565b8063698b7241146102d5578063715018a6146102fd57806382fe54b5146103135780638da5cb5b1461033b578063931fb90e1461036557610129565b806331f7d964116100f157806331f7d964146101f157806332fe7b261461021b5780633eaa00fb146102455780634dbe7e921461026f578063501cb72d1461029957610129565b80630ccee4331461012d57806316a1930f14610157578063191e777b146101615780632230c2721461019d5780632b513163146101c7575b5f80fd5b348015610138575f80fd5b50610141610497565b60405161014e9190612100565b60405180910390f35b61015f6104bb565b005b34801561016c575f80fd5b50610187600480360381019061018291906121ae565b6106d0565b6040516101949190612100565b60405180910390f35b3480156101a8575f80fd5b506101b1610934565b6040516101be9190612100565b60405180910390f35b3480156101d2575f80fd5b506101db61093a565b6040516101e89190612100565b60405180910390f35b3480156101fc575f80fd5b50610205610961565b60405161021291906121fb565b60405180910390f35b348015610226575f80fd5b5061022f610965565b60405161023c919061226f565b60405180910390f35b348015610250575f80fd5b50610259610989565b6040516102669190612100565b60405180910390f35b34801561027a575f80fd5b506102836109ad565b60405161029091906122a8565b60405180910390f35b3480156102a4575f80fd5b506102bf60048036038101906102ba91906122c1565b6109d1565b6040516102cc9190612100565b60405180910390f35b3480156102e0575f80fd5b506102fb60048036038101906102f691906122ec565b610b11565b005b348015610308575f80fd5b50610311610b68565b005b34801561031e575f80fd5b50610339600480360381019061033491906122ec565b610b7b565b005b348015610346575f80fd5b5061034f610ec3565b60405161035c91906121fb565b60405180910390f35b348015610370575f80fd5b5061038b600480360381019061038691906122ec565b610eea565b005b348015610398575f80fd5b506103b360048036038101906103ae91906121ae565b6112e5565b005b3480156103c0575f80fd5b506103c9611870565b6040516103d69190612100565b60405180910390f35b3480156103ea575f80fd5b5061040560048036038101906104009190612317565b611876565b6040516104129190612100565b60405180910390f35b348015610426575f80fd5b5061042f611896565b60405161043c9190612100565b60405180910390f35b348015610450575f80fd5b5061046b600480360381019061046691906122c1565b61189c565b005b348015610478575f80fd5b50610481611920565b60405161048e91906122a8565b60405180910390f35b7f000000000000000000000000000000000000000000000000000000000000000081565b6104c3611944565b5f34036104fc576040517f53bd4d4a00000000000000000000000000000000000000000000000000000000815260040160405180910390fd5b5f6105075f346106d0565b90507f0000000000000000000000000000000000000000000000000000000000000000816002546105389190612382565b11156105a157600254817f00000000000000000000000000000000000000000000000000000000000000006040517f94b1059c000000000000000000000000000000000000000000000000000000008152600401610598939291906123b5565b60405180910390fd5b3460015f3373ffffffffffffffffffffffffffffffffffffffff1673ffffffffffffffffffffffffffffffffffffffff1681526020019081526020015f205f8073ffffffffffffffffffffffffffffffffffffffff1673ffffffffffffffffffffffffffffffffffffffff1681526020019081526020015f205f8282546106289190612382565b925050819055508060025f8282546106409190612382565b9250508190555060035f815480929190610659906123ea565b91905055505f73ffffffffffffffffffffffffffffffffffffffff163373ffffffffffffffffffffffffffffffffffffffff167f6e3fb585f8d31b30fefa794ced1a55e290191ae558c0ad4149adc804870a69d234846040516106bd929190612431565b60405180910390a3506106ce611966565b565b5f80820361070a576040517f53bd4d4a00000000000000000000000000000000000000000000000000000000815260040160405180910390fd5b5f600267ffffffffffffffff81111561072657610725612458565b5b6040519080825280602002602001820160405280156107545781602001602082028036833780820191505090505b5090505f73ffffffffffffffffffffffffffffffffffffffff168473ffffffffffffffffffffffffffffffffffffffff161461079057836107b2565b7f00000000000000000000000000000000000000000000000000000000000000005b815f815181106107c5576107c4612485565b5b602002602001019073ffffffffffffffffffffffffffffffffffffffff16908173ffffffffffffffffffffffffffffffffffffffff16815250507f00000000000000000000000000000000000000000000000000000000000000008160018151811061083457610833612485565b5b602002602001019073ffffffffffffffffffffffffffffffffffffffff16908173ffffffffffffffffffffffffffffffffffffffff16815250505f7f000000000000000000000000000000000000000000000000000000000000000073ffffffffffffffffffffffffffffffffffffffff1663d06ca61f85846040518363ffffffff1660e01b81526004016108ca929190612569565b5f60405180830381865afa1580156108e4573d5f803e3d5ffd5b505050506040513d5f823e3d601f19601f8201168201806040525081019061090c91906126ce565b90508060018151811061092257610921612485565b5b60200260200101519250505092915050565b60035481565b5f7f0000000000000000000000000000000000000000000000000000000000000000905090565b5f81565b7f000000000000000000000000000000000000000000000000000000000000000081565b7f000000000000000000000000000000000000000000000000000000000000000081565b7f000000000000000000000000000000000000000000000000000000000000000081565b5f8060015f8473ffffffffffffffffffffffffffffffffffffffff1673ffffffffffffffffffffffffffffffffffffffff1681526020019081526020015f205f8073ffffffffffffffffffffffffffffffffffffffff1673ffffffffffffffffffffffffffffffffffffffff1681526020019081526020015f205490505f80821115610a6457610a615f836106d0565b90505b60015f8573ffffffffffffffffffffffffffffffffffffffff1673ffffffffffffffffffffffffffffffffffffffff1681526020019081526020015f205f7f000000000000000000000000000000000000000000000000000000000000000073ffffffffffffffffffffffffffffffffffffffff1673ffffffffffffffffffffffffffffffffffffffff1681526020019081526020015f205481610b089190612382565b92505050919050565b610b19611944565b805f8103610b53576040517f53bd4d4a00000000000000000000000000000000000000000000000000000000815260040160405180910390fd5b610b5c82611980565b50610b65611966565b50565b610b70611bcc565b610b795f611c53565b565b610b83611944565b805f8103610bbd576040517f53bd4d4a00000000000000000000000000000000000000000000000000000000815260040160405180910390fd5b8160015f3373ffffffffffffffffffffffffffffffffffffffff1673ffffffffffffffffffffffffffffffffffffffff1681526020019081526020015f205f8073ffffffffffffffffffffffffffffffffffffffff1673ffffffffffffffffffffffffffffffffffffffff1681526020019081526020015f20541015610cf45760015f3373ffffffffffffffffffffffffffffffffffffffff1673ffffffffffffffffffffffffffffffffffffffff1681526020019081526020015f205f8073ffffffffffffffffffffffffffffffffffffffff1673ffffffffffffffffffffffffffffffffffffffff1681526020019081526020015f2054826040517f986d1e8a000000000000000000000000000000000000000000000000000000008152600401610ceb929190612431565b60405180910390fd5b5f610cff5f846106d0565b90507f0000000000000000000000000000000000000000000000000000000000000000811115610d8857807f00000000000000000000000000000000000000000000000000000000000000006040517fbb2592ae000000000000000000000000000000000000000000000000000000008152600401610d7f929190612431565b60405180910390fd5b8260015f3373ffffffffffffffffffffffffffffffffffffffff1673ffffffffffffffffffffffffffffffffffffffff1681526020019081526020015f205f8073ffffffffffffffffffffffffffffffffffffffff1673ffffffffffffffffffffffffffffffffffffffff1681526020019081526020015f205f828254610e0f9190612715565b925050819055508060025f828254610e279190612715565b9250508190555060045f815480929190610e40906123ea565b91905055505f73ffffffffffffffffffffffffffffffffffffffff163373ffffffffffffffffffffffffffffffffffffffff167f0c46fb23e5286bd9b0d2ee459346545338712fea1fb2401e36a66186c1b612a78584604051610ea4929190612431565b60405180910390a3610eb63384611d14565b5050610ec0611966565b50565b5f805f9054906101000a900473ffffffffffffffffffffffffffffffffffffffff16905090565b610ef2611944565b805f8103610f2c576040517f53bd4d4a00000000000000000000000000000000000000000000000000000000815260040160405180910390fd5b7f0000000000000000000000000000000000000000000000000000000000000000821115610fb357817f00000000000000000000000000000000000000000000000000000000000000006040517fbb2592ae000000000000000000000000000000000000000000000000000000008152600401610faa929190612431565b60405180910390fd5b8160015f3373ffffffffffffffffffffffffffffffffffffffff1673ffffffffffffffffffffffffffffffffffffffff1681526020019081526020015f205f7f000000000000000000000000000000000000000000000000000000000000000073ffffffffffffffffffffffffffffffffffffffff1673ffffffffffffffffffffffffffffffffffffffff1681526020019081526020015f2054101561112a5760015f3373ffffffffffffffffffffffffffffffffffffffff1673ffffffffffffffffffffffffffffffffffffffff1681526020019081526020015f205f7f000000000000000000000000000000000000000000000000000000000000000073ffffffffffffffffffffffffffffffffffffffff1673ffffffffffffffffffffffffffffffffffffffff1681526020019081526020015f2054826040517f986d1e8a000000000000000000000000000000000000000000000000000000008152600401611121929190612431565b60405180910390fd5b8160015f3373ffffffffffffffffffffffffffffffffffffffff1673ffffffffffffffffffffffffffffffffffffffff1681526020019081526020015f205f7f000000000000000000000000000000000000000000000000000000000000000073ffffffffffffffffffffffffffffffffffffffff1673ffffffffffffffffffffffffffffffffffffffff1681526020019081526020015f205f8282546111d19190612715565b925050819055508160025f8282546111e99190612715565b9250508190555060045f815480929190611202906123ea565b91905055507f000000000000000000000000000000000000000000000000000000000000000073ffffffffffffffffffffffffffffffffffffffff163373ffffffffffffffffffffffffffffffffffffffff167f0c46fb23e5286bd9b0d2ee459346545338712fea1fb2401e36a66186c1b612a78485604051611286929190612431565b60405180910390a36112d933837f000000000000000000000000000000000000000000000000000000000000000073ffffffffffffffffffffffffffffffffffffffff16611dc39092919063ffffffff16565b506112e2611966565b50565b6112ed611944565b805f8103611327576040517f53bd4d4a00000000000000000000000000000000000000000000000000000000815260040160405180910390fd5b7f000000000000000000000000000000000000000000000000000000000000000073ffffffffffffffffffffffffffffffffffffffff168373ffffffffffffffffffffffffffffffffffffffff16036113885761138382611980565b611863565b5f61139384846106d0565b90507f0000000000000000000000000000000000000000000000000000000000000000816002546113c49190612382565b111561142d57600254817f00000000000000000000000000000000000000000000000000000000000000006040517f94b1059c000000000000000000000000000000000000000000000000000000008152600401611424939291906123b5565b60405180910390fd5b5f84905061145e3330868473ffffffffffffffffffffffffffffffffffffffff16611e16909392919063ffffffff16565b6114a97f0000000000000000000000000000000000000000000000000000000000000000858373ffffffffffffffffffffffffffffffffffffffff16611e6b9092919063ffffffff16565b5f600267ffffffffffffffff8111156114c5576114c4612458565b5b6040519080825280602002602001820160405280156114f35781602001602082028036833780820191505090505b50905085815f8151811061150a57611509612485565b5b602002602001019073ffffffffffffffffffffffffffffffffffffffff16908173ffffffffffffffffffffffffffffffffffffffff16815250507f00000000000000000000000000000000000000000000000000000000000000008160018151811061157957611578612485565b5b602002602001019073ffffffffffffffffffffffffffffffffffffffff16908173ffffffffffffffffffffffffffffffffffffffff16815250505f6103e86103e3856115c59190612748565b6115cf91906127b6565b90505f7f000000000000000000000000000000000000000000000000000000000000000073ffffffffffffffffffffffffffffffffffffffff166338ed17398884863061012c426116209190612382565b6040518663ffffffff1660e01b81526004016116409594939291906127e6565b5f604051808303815f875af115801561165b573d5f803e3d5ffd5b505050506040513d5f823e3d601f19601f8201168201806040525081019061168391906126ce565b90505f8160018151811061169a57611699612485565b5b602002602001015190508060015f3373ffffffffffffffffffffffffffffffffffffffff1673ffffffffffffffffffffffffffffffffffffffff1681526020019081526020015f205f7f000000000000000000000000000000000000000000000000000000000000000073ffffffffffffffffffffffffffffffffffffffff1673ffffffffffffffffffffffffffffffffffffffff1681526020019081526020015f205f82825461174b9190612382565b925050819055508060025f8282546117639190612382565b9250508190555060035f81548092919061177c906123ea565b91905055503373ffffffffffffffffffffffffffffffffffffffff167f764f0dc063c06f32d89a3f3af80c0db4be8a090901f589a478b447e0a51f09f18a7f00000000000000000000000000000000000000000000000000000000000000008b856040516117ed949392919061283e565b60405180910390a28873ffffffffffffffffffffffffffffffffffffffff163373ffffffffffffffffffffffffffffffffffffffff167f6e3fb585f8d31b30fefa794ced1a55e290191ae558c0ad4149adc804870a69d28a84604051611854929190612431565b60405180910390a35050505050505b5061186c611966565b5050565b60045481565b6001602052815f5260405f20602052805f5260405f205f91509150505481565b60025481565b6118a4611bcc565b5f73ffffffffffffffffffffffffffffffffffffffff168173ffffffffffffffffffffffffffffffffffffffff1603611914575f6040517f1e4fbdf700000000000000000000000000000000000000000000000000000000815260040161190b91906121fb565b60405180910390fd5b61191d81611c53565b50565b7f000000000000000000000000000000000000000000000000000000000000000081565b61194c611f1d565b600261195e611959611f5e565b611f87565b5f0181905550565b6001611978611973611f5e565b611f87565b5f0181905550565b7f0000000000000000000000000000000000000000000000000000000000000000816002546119af9190612382565b1115611a1857600254817f00000000000000000000000000000000000000000000000000000000000000006040517f94b1059c000000000000000000000000000000000000000000000000000000008152600401611a0f939291906123b5565b60405180910390fd5b8060015f3373ffffffffffffffffffffffffffffffffffffffff1673ffffffffffffffffffffffffffffffffffffffff1681526020019081526020015f205f7f000000000000000000000000000000000000000000000000000000000000000073ffffffffffffffffffffffffffffffffffffffff1673ffffffffffffffffffffffffffffffffffffffff1681526020019081526020015f205f828254611abf9190612382565b925050819055508060025f828254611ad79190612382565b9250508190555060035f815480929190611af0906123ea565b91905055507f000000000000000000000000000000000000000000000000000000000000000073ffffffffffffffffffffffffffffffffffffffff163373ffffffffffffffffffffffffffffffffffffffff167f6e3fb585f8d31b30fefa794ced1a55e290191ae558c0ad4149adc804870a69d28384604051611b74929190612431565b60405180910390a3611bc93330837f000000000000000000000000000000000000000000000000000000000000000073ffffffffffffffffffffffffffffffffffffffff16611e16909392919063ffffffff16565b50565b611bd4611f90565b73ffffffffffffffffffffffffffffffffffffffff16611bf2610ec3565b73ffffffffffffffffffffffffffffffffffffffff1614611c5157611c15611f90565b6040517f118cdaa7000000000000000000000000000000000000000000000000000000008152600401611c4891906121fb565b60405180910390fd5b565b5f805f9054906101000a900473ffffffffffffffffffffffffffffffffffffffff169050815f806101000a81548173ffffffffffffffffffffffffffffffffffffffff021916908373ffffffffffffffffffffffffffffffffffffffff1602179055508173ffffffffffffffffffffffffffffffffffffffff168173ffffffffffffffffffffffffffffffffffffffff167f8be0079c531659141344cd1fd0a4f28419497f9722a3daafe3b4186f6b6457e060405160405180910390a35050565b5f8273ffffffffffffffffffffffffffffffffffffffff1682604051611d39906128ae565b5f6040518083038185875af1925050503d805f8114611d73576040519150601f19603f3d011682016040523d82523d5f602084013e611d78565b606091505b5050905080611dbe57826040517fa2355bf6000000000000000000000000000000000000000000000000000000008152600401611db591906121fb565b60405180910390fd5b505050565b611dd08383836001611f97565b611e1157826040517f5274afe7000000000000000000000000000000000000000000000000000000008152600401611e0891906121fb565b60405180910390fd5b505050565b611e24848484846001611ff9565b611e6557836040517f5274afe7000000000000000000000000000000000000000000000000000000008152600401611e5c91906121fb565b60405180910390fd5b50505050565b611e778383835f61206a565b611f1857611e8883835f600161206a565b611ec957826040517f5274afe7000000000000000000000000000000000000000000000000000000008152600401611ec091906121fb565b60405180910390fd5b611ed6838383600161206a565b611f1757826040517f5274afe7000000000000000000000000000000000000000000000000000000008152600401611f0e91906121fb565b60405180910390fd5b5b505050565b611f256120cc565b15611f5c576040517f3ee5aeb500000000000000000000000000000000000000000000000000000000815260040160405180910390fd5b565b5f7f9b779b17422d0df92223018b32b4d1fa46e071723d6817e2486d003becc55f005f1b905090565b5f819050919050565b5f33905090565b5f8063a9059cbb60e01b9050604051815f525f1960601c86166004528460245260205f60445f808b5af1925060015f51148316611feb578383151615611fdf573d5f823e3d81fd5b5f873b113d1516831692505b806040525050949350505050565b5f806323b872dd60e01b9050604051815f525f1960601c87166004525f1960601c86166024528460445260205f60645f808c5af1925060015f5114831661205757838315161561204b573d5f823e3d81fd5b5f883b113d1516831692505b806040525f606052505095945050505050565b5f8063095ea7b360e01b9050604051815f525f1960601c86166004528460245260205f60445f808b5af1925060015f511483166120be5783831516156120b2573d5f823e3d81fd5b5f873b113d1516831692505b806040525050949350505050565b5f60026120df6120da611f5e565b611f87565b5f015414905090565b5f819050919050565b6120fa816120e8565b82525050565b5f6020820190506121135f8301846120f1565b92915050565b5f604051905090565b5f80fd5b5f80fd5b5f73ffffffffffffffffffffffffffffffffffffffff82169050919050565b5f6121538261212a565b9050919050565b61216381612149565b811461216d575f80fd5b50565b5f8135905061217e8161215a565b92915050565b61218d816120e8565b8114612197575f80fd5b50565b5f813590506121a881612184565b92915050565b5f80604083850312156121c4576121c3612122565b5b5f6121d185828601612170565b92505060206121e28582860161219a565b9150509250929050565b6121f581612149565b82525050565b5f60208201905061220e5f8301846121ec565b92915050565b5f819050919050565b5f61223761223261222d8461212a565b612214565b61212a565b9050919050565b5f6122488261221d565b9050919050565b5f6122598261223e565b9050919050565b6122698161224f565b82525050565b5f6020820190506122825f830184612260565b92915050565b5f6122928261223e565b9050919050565b6122a281612288565b82525050565b5f6020820190506122bb5f830184612299565b92915050565b5f602082840312156122d6576122d5612122565b5b5f6122e384828501612170565b91505092915050565b5f6020828403121561230157612300612122565b5b5f61230e8482850161219a565b91505092915050565b5f806040838503121561232d5761232c612122565b5b5f61233a85828601612170565b925050602061234b85828601612170565b9150509250929050565b7f4e487b71000000000000000000000000000000000000000000000000000000005f52601160045260245ffd5b5f61238c826120e8565b9150612397836120e8565b92508282019050808211156123af576123ae612355565b5b92915050565b5f6060820190506123c85f8301866120f1565b6123d560208301856120f1565b6123e260408301846120f1565b949350505050565b5f6123f4826120e8565b91507fffffffffffffffffffffffffffffffffffffffffffffffffffffffffffffffff820361242657612425612355565b5b600182019050919050565b5f6040820190506124445f8301856120f1565b61245160208301846120f1565b9392505050565b7f4e487b71000000000000000000000000000000000000000000000000000000005f52604160045260245ffd5b7f4e487b71000000000000000000000000000000000000000000000000000000005f52603260045260245ffd5b5f81519050919050565b5f82825260208201905092915050565b5f819050602082019050919050565b6124e481612149565b82525050565b5f6124f583836124db565b60208301905092915050565b5f602082019050919050565b5f612517826124b2565b61252181856124bc565b935061252c836124cc565b805f5b8381101561255c57815161254388826124ea565b975061254e83612501565b92505060018101905061252f565b5085935050505092915050565b5f60408201905061257c5f8301856120f1565b818103602083015261258e818461250d565b90509392505050565b5f80fd5b5f601f19601f8301169050919050565b6125b48261259b565b810181811067ffffffffffffffff821117156125d3576125d2612458565b5b80604052505050565b5f6125e5612119565b90506125f182826125ab565b919050565b5f67ffffffffffffffff8211156126105761260f612458565b5b602082029050602081019050919050565b5f80fd5b5f8151905061263381612184565b92915050565b5f61264b612646846125f6565b6125dc565b9050808382526020820190506020840283018581111561266e5761266d612621565b5b835b8181101561269757806126838882612625565b845260208401935050602081019050612670565b5050509392505050565b5f82601f8301126126b5576126b4612597565b5b81516126c5848260208601612639565b91505092915050565b5f602082840312156126e3576126e2612122565b5b5f82015167ffffffffffffffff811115612700576126ff612126565b5b61270c848285016126a1565b91505092915050565b5f61271f826120e8565b915061272a836120e8565b925082820390508181111561274257612741612355565b5b92915050565b5f612752826120e8565b915061275d836120e8565b925082820261276b816120e8565b9150828204841483151761278257612781612355565b5b5092915050565b7f4e487b71000000000000000000000000000000000000000000000000000000005f52601260045260245ffd5b5f6127c0826120e8565b91506127cb836120e8565b9250826127db576127da612789565b5b828204905092915050565b5f60a0820190506127f95f8301886120f1565b61280660208301876120f1565b8181036040830152612818818661250d565b905061282760608301856121ec565b61283460808301846120f1565b9695505050505050565b5f6080820190506128515f8301876121ec565b61285e60208301866121ec565b61286b60408301856120f1565b61287860608301846120f1565b95945050505050565b5f81905092915050565b50565b5f6128995f83612881565b91506128a48261288b565b5f82019050919050565b5f6128b88261288e565b915081905091905056fea26469706673582212208f950eeb5d2e5cac301836c79bdd5e0808cd95c8dfa4223758fecbde066bb01f64736f6c634300081a0033","linkReferences":{}},"methodIdentifiers":{"NATIVE_TOKEN()":"31f7d964","ROUTER()":"32fe7b26","consultarBalanceTotalUSD(address)":"501cb72d","depositarETH()":"16a1930f","depositarToken(address,uint256)":"a86b0bf6","depositarUSDC(uint256)":"698b7241","getCotizacionTokenAUsdc(address,uint256)":"191e777b","getUmbralRetiro()":"2b513163","i_bankCapUSD()":"0ccee433","i_umbralRetiroUSD()":"3eaa00fb","i_usdc()":"ff40e1d0","i_weth()":"4dbe7e92","owner()":"8da5cb5b","renounceOwnership()":"715018a6","retirarETH(uint256)":"82fe54b5","retirarUSDC(uint256)":"931fb90e","s_balances(address,address)":"dccd58e3","s_contadorDepositos()":"2230c272","s_contadorRetiros()":"d4b0d3ce","s_totalDepositadoUSD()":"e98c6601","transferOwnership(address)":"f2fde38b"},"id":26}